Apollo Guidance Computer (AGC) assembler, version 2020-12-24, built May  2 2022, target AGC4
(c)2003-2005,2009-2010,2016-2018,2021 Ronald S. Burkey
Refer to http://www.ibiblio.org/apollo/index.html for more information.
Pass #1
Pass #2
Pass #3
000001:    4000                                           SETLOC   4000                          	#
000002:    4000                                           BANK                                   	#
000003:    4000           30007        BEGIN              CA       ZERO                          	#
000004:    4001           56001                           XCH      L                             	#
000005:
000006:    4002           34030        TEST1              CA       MPE1                          	#
000007:    4003           54100                           TS       MPELOC1                       	#
000008:    4004           34027                           CA       MPA1                          	#
000009:    4005           00006                           EXTEND                                 	#
000010:    4006           70100                           MP       MPELOC1                       	#
000011:
000012:    4007           34032        TEST2              CA       MPE2                          	#
000013:    4010           54101                           TS       MPELOC2                       	#
000014:    4011           34031                           CA       MPA2                          	#
000015:    4012           00006                           EXTEND                                 	#
000016:    4013           70101                           MP       MPELOC2                       	#
000017:
000018:    4014           34034        TEST3              CA       MPE3                          	#
000019:    4015           54102                           TS       MPELOC3                       	#
000020:    4016           34033                           CA       MPA3                          	#
000021:    4017           00006                           EXTEND                                 	#
000022:    4020           70102                           MP       MPELOC3                       	#
000023:
000024:    4021           34036        TEST4              CA       MPE4                          	#
000025:    4022           54103                           TS       MPELOC4                       	#
000026:    4023           34035                           CA       MPA4                          	#
000027:    4024           00006                           EXTEND                                 	#
000028:    4025           70103                           MP       MPELOC4                       	#
000029:
000030:    4026           14000                           TCF      BEGIN                         	#
000031:
000032:                                                                                          	# CONSTANTS AND SUCH
000033:    4027                        A                  EQUALS   0                             	#
000034:    4027                        L                  EQUALS   1                             	#
000035:    4027                        Q                  EQUALS   2                             	#
000036:    4027                        EB                 EQUALS   3                             	#
000037:    4027                        FB                 EQUALS   4                             	#
000038:    4027                        Z                  EQUALS   5                             	#
000039:    4027                        BB                 EQUALS   6                             	#
000040:    4027                        ZERO               EQUALS   7                             	#
000041:    4027           16344        MPA1               OCT      016344                        	#
000042:    4030           10101        MPE1               OCT      010101                        	#
000043:    4031                        MPELOC1            EQUALS   000100                        	#
000044:    4031           16344        MPA2               OCT      016344                        	#
000045:    4032           67676        MPE2               OCT      067676                        	#
000046:    4033                        MPELOC2            EQUALS   000101                        	#
000047:    4033           37777        MPA3               OCT      037777                        	#
000048:    4034           00002        MPE3               OCT      000002                        	#
000049:    4035                        MPELOC3            EQUALS   000102                        	#
000050:    4035           00000        MPA4               OCT      000000                        	#
000051:    4036           37777        MPE4               OCT      037777                        	#
000052:    4037                        MPELOC4            EQUALS   000103                        	#
Removing the duplicated lines...

Symbol-table file written.


Usage Table for Fixed-Memory Banks
----------------------------------
Bank 00:  0000/2000 words used.
Bank 01:  0000/2000 words used.
Bank 02:  0037/2000 words used.
Bank 03:  0000/2000 words used.
Bank 04:  0000/2000 words used.
Bank 05:  0000/2000 words used.
Bank 06:  0000/2000 words used.
Bank 07:  0000/2000 words used.
Bank 10:  0000/2000 words used.
Bank 11:  0000/2000 words used.
Bank 12:  0000/2000 words used.
Bank 13:  0000/2000 words used.
Bank 14:  0000/2000 words used.
Bank 15:  0000/2000 words used.
Bank 16:  0000/2000 words used.
Bank 17:  0000/2000 words used.
Bank 20:  0000/2000 words used.
Bank 21:  0000/2000 words used.
Bank 22:  0000/2000 words used.
Bank 23:  0000/2000 words used.
Bank 24:  0000/2000 words used.
Bank 25:  0000/2000 words used.
Bank 26:  0000/2000 words used.
Bank 27:  0000/2000 words used.
Bank 30:  0000/2000 words used.
Bank 31:  0000/2000 words used.
Bank 32:  0000/2000 words used.
Bank 33:  0000/2000 words used.
Bank 34:  0000/2000 words used.
Bank 35:  0000/2000 words used.
Bank 36:  0000/2000 words used.
Bank 37:  0000/2000 words used.
Bank 40:  0000/2000 words used.
Bank 41:  0000/2000 words used.
Bank 42:  0000/2000 words used.
Bank 43:  0000/2000 words used.


Symbol Table
------------
     1,C:   A            0000000
  ==============================
     2,C:   BB           0000006
     3,F:   BEGIN           4000
  ==============================
     4,C:   EB           0000003
  ==============================
     5,C:   FB           0000004
  ==============================
     6,C:   L            0000001
  ==============================
     7,F:   MPA1            4027
     8,F:   MPA2            4031
     9,F:   MPA3            4033
    10,F:   MPA4            4035
    11,C:   MPELOC1      0000100
    12,C:   MPELOC2      0000101
    13,C:   MPELOC3      0000102
    14,C:   MPELOC4      0000103
    15,F:   MPE1            4030
    16,F:   MPE2            4032
    17,F:   MPE3            4034
    18,F:   MPE4            4036
  ==============================
    19,C:   Q            0000002
  ==============================
    20,F:   TEST1           4002
    21,F:   TEST2           4007
    22,F:   TEST3           4014
    23,F:   TEST4           4021
  ==============================
    24,C:   Z            0000005
    25,C:   ZERO         0000007

Unresolved symbols:  0
Fatal errors:  0
Warnings:  0

Bugger word 67352 at 02,2041.
